:100000000C9416020C943E020C943E020C943E0298
:100010000C943E020C943E020C943E020C943E0260
:100020000C943E020C943E020C943E020C943E0250
:100030000C943E020C943E020C943E020C943E0240
:100040000C9477050C943E020C94E7050C94C105C2
:100050000C943E020C943E020C943E020C943E0220
:100060000C943E020C943E02206D735D20005B00F8
:10007000206D735D20005B004661756C74206D6FB0
:100080006E69746F72206F6E6C696E653A204C6198
:100090006D70202B204C4544202B2053656E736FD0
:1000A00072202B2042757A7A6572202B20496E646B
:1000B000696361746F72207374616765732E005693
:1000C0000056207C204E6F6465413D00562044332D
:1000D000636D643D0056207C20443373656E736508
:1000E0003D0056204432636D643D0056207C204420
:1000F0003273656E73653D00562056737570706C73
:10010000793D005673656E73653D00206D735D200B
:10011000484541525442454154207C20005B004DEB
:100120004F44453A204D616E75616C206F76657263
:1001300072696465204F4646206E6F206C6F6E6753
:10014000657220616374697665004D4F44453A20BD
:100150004D616E75616C206F7665727269646520A1
:100160004F4646202F206375746F66662064657461
:10017000656374656420286C616D7020756E706FA6
:100180007765726564206465737069746520646165
:10019000726B6E65737329004D4F44453A204D6173
:1001A0006E75616C206F76657272696465204F4E62
:1001B000206E6F206C6F6E67657220616374697664
:1001C00065004D4F44453A204D616E75616C206F5E
:1001D00076657272696465204F4E2064657465634C
:1001E00074656420286C616D7020706F776572652E
:1001F000642064657370697465206461796C6967F3
:1002000068742900434C45415245443A204C4452BD
:10021000206F70656E2D6369726375697420636FFA
:100220006E646974696F6E207265736F6C76656455
:10023000004641554C543A204C44522073656E732D
:100240006F72206170706561727320444953434F2F
:100250004E4E4543544544202872656164696E677B
:100260002070696E6E6564206E65617220726169CE
:100270006C2900434C45415245443A204C4452209D
:1002800073686F727420636F6E646974696F6E2037
:100290007265736F6C766564004641554C543A2024
:1002A0004C44522073656E736F722061707065618B
:1002B00072732053484F525445442028726561643C
:1002C000696E672070696E6E6564206E656172206C
:1002D00067726F756E642900434C45415245443A3C
:1002E0002044332028677265656E29206661756C2D
:1002F00074207265736F6C766564004641554C548A
:100300003A20477265656E20286461792920696EFC
:1003100064696361746F72204C4544206E6F742071
:10032000636F6E64756374696E6700434C45415238
:1003300045443A204432202872656429206661755C
:100340006C74207265736F6C766564004641554C21
:10035000543A2052656420286E69676874292069C0
:100360006E64696361746F72204C4544206E6F74D3
:1003700020636F6E64756374696E6700434C45411A
:100380005245443A204C616D70206661756C742052
:100390007265736F6C766564004641554C543A2023
:1003A0004C616D70206E6F7420636F6E6475637442
:1003B000696E672028737570706C79207072657330
:1003C000656E742C206E6F2063757272656E74207A
:1003D00064657465637465642900000000080002A8
:1003E00001000003040700000000000000000000FE
:1003F0000000250028002B0000000000240027003A
:100400002A00040404040404040402020202020296
:1004100003030303030301020408102040800102C8
:1004200004081020010204081020520911241FBEE4
:10043000CFEFD8E0DEBFCDBF11E0A0E0B1E0E6EE47
:10044000F6E102C005900D92A232B107D9F721E082
:10045000A2E2B1E001C01D92A83DB207E1F712E0AF
:10046000C6E1D2E004C02197FE010E946B0BC531AA
:10047000D107C9F70E9419060C94710B0C94000067
:1004800090E0FC01EA5EFB4F24918E5F9B4FFC01E4
:100490008491882399F090E0880F991FFC01E8501F
:1004A000FC4FA591B491FC01E251FC4F85919491D0
:1004B0008FB7F894EC91E22BEC938FBF089590E006
:1004C000FC01E652FC4F2491FC01EA5EFB4F3491A3
:1004D000FC01EE5FFB4FE491EE23C9F0222339F0DB
:1004E000233001F1A8F4213019F1223029F1F0E094
:1004F000EE0FFF1FE251FC4FA591B4918FB7F89416
:10050000EC91611126C030953E233C938FBF089536
:100510002730A9F02830C9F0243049F780918000B5
:100520008F7D03C0809180008F7780938000DFCF24
:1005300084B58F7784BDDBCF84B58F7DFBCF809171
:10054000B0008F778093B000D2CF8091B0008F7DC4
:10055000F9CF3E2BDACF8E50806480937C0080915F
:100560007A00806480937A0080917A0086FDFCCFC7
:10057000809178009091790008953FB7F894809128
:10058000370190913801A0913901B0913A0126B517
:10059000A89B05C02F3F19F00196A11DB11D3FBFBB
:1005A000BA2FA92F982F8827BC01CD01620F711D8A
:1005B000811D911D42E0660F771F881F991F4A9584
:1005C000D1F708952FB7F8946091330170913401F9
:1005D00080913501909136012FBF0895AF92BF925F
:1005E000CF92DF92EF92FF920F931F93CF93DF93FF
:1005F0006C017B018B01040F151FEB015E01AE182E
:10060000BF08C017D10759F06991D601ED91FC914F
:100610000190F081E02DC6010995892B79F7C5017C
:10062000DF91CF911F910F91FF90EF90DF90CF90CE
:10063000BF90AF900895FC01538D448D252F30E07D
:10064000842F90E0821B930B541710F0CF960895DF
:1006500001970895FC01918D828D981761F0A28D0C
:10066000AE0FBF2FB11D5D968C91928D9F5F9F73D2
:10067000928F90E008958FEF9FEF0895FC01918D88
:10068000828D981731F0828DE80FF11D858D90E0F5
:1006900008958FEF9FEF0895FC01918D228D892F92
:1006A00090E0805C9F4F821B91098F73992708957A
:1006B0008BE391E00E944C0321E0892B09F420E0B8
:1006C000822F089580E090E0892B29F00E94580342
:1006D00081110C9400000895FC01A48DA80FB92F7E
:1006E000B11DA35ABF4F2C91848D90E001968F735A
:1006F0009927848FA689B7892C93A089B1898C9179
:10070000837080648C93938D848D981306C00288C7
:10071000F389E02D80818F7D80830895EF92FF9291
:100720000F931F93CF93DF93EC0181E0888F9B8D14
:100730008C8D98131AC0E889F989808185FF15C0CE
:100740009FB7F894EE89FF896083E889F9898081F1
:100750008370806480839FBF81E090E0DF91CF91C0
:100760001F910F91FF90EF900895F62E0B8D10E0E2
:100770000F5F1F4F0F731127E02E8C8D8E110CC051
:100780000FB607FCFACFE889F989808185FFF5CF9C
:10079000CE010E946C03F1CFEB8DEC0FFD2FF11D0C
:1007A000E35AFF4FF0829FB7F8940B8FEA89FB89D9
:1007B00080818062CFCF0F931F93CF93DF938C0103
:1007C000D0E0C0E0F801EC0FFD1F6491662341F01A
:1007D0008BE391E00E948E03892B11F02196F2CFDA
:1007E000CE01DF91CF911F910F910895CF93DF93A9
:1007F000EC01888D8823B9F0AA89BB89E889F98939
:100800008C9185FD03C0808186FD0DC00FB607FC6D
:10081000F7CF8C9185FFF2CF808185FFEDCFCE01A0
:100820000E946C03E9CFDF91CF910895FC01019004
:100830000020E9F73197AF01481B590BBC018BE34E
:1008400091E00C94EE028F929F92AF92BF920F9321
:100850001F93CF93DF93CDB7DEB7A1970FB6F89470
:10086000DEBF0FBECDBF19A2423008F44AE08E01B0
:100870000F5D1F4F842E912CB12CA12CA50194014A
:100880000E94490BE62FB901CA01EA30F4F4E05D99
:10089000D801EE938D01232B242B252B79F790E0A3
:1008A00080E0109719F0CD010E941604A1960FB6B2
:1008B000F894DEBF0FBECDBFDF91CF911F910F9196
:1008C000BF90AF909F908F900895E95CE1CFCF9358
:1008D000DF930E94DB03EC0182E191E00E941604A9
:1008E0008C0F9D1FDF91CF9108954F925F926F9271
:1008F0007F928F929F92AF92BF92CF92DF92EF92B0
:10090000FF926B017C01AC019B010E94440B882388
:1009100081F085E191E0FF90EF90DF90CF90BF9064
:10092000AF909F908F907F906F905F904F900C94BE
:10093000160446015701E894B7F82FEF3FEF4FE751
:100940005FE7C501B4010E94440B81110DC02FEF78
:100950003FEF4FE75FE7C501B4010E94EC091816AD
:100960001CF489E191E0D7CF2FEF3FEF4FE75FE431
:10097000C701B6010E94D20A18161CF48DE191E05D
:10098000CACF2FEF3FEF4FE75FECC701B6010E94E0
:10099000EC0987FDF3CF20E030E0A901C701B601E3
:1009A0000E94EC09B12CA12C87FF0AC06DE28BE3F9
:1009B00091E00E948E035C01F7FAF094F7F8F0944E
:1009C0002AE037ED43EA5BE3C701B6010E948009E4
:1009D0002B013C010E94F1096B017C010E94200A5D
:1009E0009B01AC01C301B2010E947F092B013C01B4
:1009F0004AE0C701B6010E9423047C01EA0CFB1CFB
:100A00006EE28BE391E00E948E03E80EF91E20E077
:100A100030E040E251E4C301B2010E94D70A2B0149
:100A20003C010E94F1094B01B12CA12C4AE0C50107
:100A3000B4010E942304E80EF91EC501B4010E940E
:100A4000200A9B01AC01C301B2010E947F0920E092
:100A500030E040E251E40E94D70A0E94F10990E0A0
:100A600080E04AE00E9423048E0D9F1DFF90EF90CE
:100A7000DF90CF90BF90AF909F908F907F906F90BE
:100A80005F904F9008950F931F93CF93DF938A0148
:100A9000E9018823B1F0611125C08EE690E00E9443
:100AA000DB030E94E2024AE00E94230488E690E011
:100AB0000E94DB03C801DF91CF911F910F910C942D
:100AC0006704662379F086E790E00E94DB030E94CA
:100AD000E2024AE00E94230480E790E00E94DB03E8
:100AE000CE01E9CFDF91CF911F910F9108951F9211
:100AF0000F920FB60F9211242F933F938F939F93D2
:100B0000AF93BF938091330190913401A09135014F
:100B1000B09136013091320123E0230F2D3758F583
:100B20000196A11DB11D2093320180933301909352
:100B30003401A0933501B093360180913701909133
:100B40003801A0913901B0913A010196A11DB11D62
:100B50008093370190933801A0933901B0933A0103
:100B6000BF91AF919F918F913F912F910F900FBEA9
:100B70000F901F90189526E8230F0296A11DB11D16
:100B8000D2CF1F920F920FB60F9211242F933F9343
:100B90004F935F936F937F938F939F93AF93BF9385
:100BA000EF93FF938BE391E00E946C03FF91EF9131
:100BB000BF91AF919F918F917F916F915F914F9175
:100BC0003F912F910F900FBE0F901F9018951F927D
:100BD0000F920FB60F9211242F938F939F93EF9341
:100BE000FF93E0914B01F0914C018081E091510124
:100BF000F091520182FD1BC09081809154018F5F62
:100C00008F7320915501821741F0E0915401F0E07B
:100C1000E55CFE4F958F80935401FF91EF919F917A
:100C20008F912F910F900FBE0F901F90189580817C
:100C3000F4CFCF93DF93CDB7DEB763970FB6F894B9
:100C4000DEBF0FBECDBF789484B5826084BD84B50D
:100C5000816084BD85B5826085BD85B5816085BDB7
:100C600080916E00816080936E001092810080916F
:100C700081008260809381008091810081608093F7
:100C80008100809180008160809380008091B1001C
:100C900084608093B1008091B00081608093B00047
:100CA00080917A00846080937A0080917A008260DB
:100CB00080937A0080917A00816080937A0080919D
:100CC0007A00806880937A001092C10088E00E94C8
:100CD000400289E00E9440028AE00E9440028BE0CC
:100CE0000E9440028CE00E9440028DE00E9440027F
:100CF000E0914B01F0914C0182E08083E09147014B
:100D0000F09148011082E0914901F0914A018FEC85
:100D1000808310925301E0914F01F091500186E0E1
:100D20008083E0914D01F0914E018081806180834C
:100D3000E0914D01F0914E01808188608083E091C7
:100D40004D01F0914E01808180688083E0914D01DA
:100D5000F0914E0180818F7D80830E94BD024B0106
:100D60005C0184EFC82EDD24D394E12CF12C0E9489
:100D7000BD02681979098A099B09683E734081059B
:100D80009105A8F321E0C21AD108E108F10888EE24
:100D9000880E83E0981EA11CB11CC114D104E1048B
:100DA000F10429F788E090E09A8389838EE00E941D
:100DB000AB028FE00E94AB0280E10E94AB0281E1B6
:100DC0000E94AB0282E10E94AB0283E10E94AB026F
:100DD00084E10E94AB0289819A8101979A83898379
:100DE000892B21F788E790E00E9467048EE00E943B
:100DF000AB02BC01990F880B990B0E94220A2AE0D2
:100E000038E240EA5BE30E94D70A69837A838B83E6
:100E10009C838FE00E94AB02BC01990F880B990B59
:100E20000E94220A2AE038E240EA5BE30E94D70AE5
:100E300023E93BE248E450E40E94D70A2B013C013D
:100E400080E10E94AB02BC01990F880B990B0E94B4
:100E5000220A2AE038E240EA5BE30E94D70A6D8367
:100E60007E838F83988781E10E94AB02BC01990F3A
:100E7000880B990B0E94220A2AE038E240EA5BE3E1
:100E80000E94D70A69877A878B879C8782E10E94B4
:100E9000AB02BC01990F880B990B0E94220A2AE031
:100EA00038E240EA5BE30E94D70A23E93BE248E4E8
:100EB00050E40E94D70A6D877E878F87988B83E1E5
:100EC0000E94AB02BC01990F880B990B0E94220A69
:100ED0002AE038E240EA5BE30E94D70A23E93BE2DA
:100EE00048E450E40E94D70A4B015C0184E10E946F
:100EF000AB02BC01990F880B990B0E94220A2AE0D1
:100F000038E240EA5BE30E94D70A23E93BE248E487
:100F100050E40E94D70A6B017C0120E030E040ECF5
:100F200050E4C301B2010E94D20A181674F43324AB
:100F300033942AE939E949E95EE369817A818B8151
:100F40009C810E94EC0918160CF4312C20E030E052
:100F500040EC50E46D857E858F8598890E94D20A89
:100F600018166CF401E02AE939E949E95EE36D817C
:100F70007E818F8198850E94EC0918160CF400E0A0
:100F800020E030E040EC50E4C501B4010E94D20AF8
:100F9000181674F491E09A8B2AE939E949E95EE37D
:100FA00069857A858B859C850E94EC0918160CF45E
:100FB0001A8A20E030E040E05FE3C701B6010E94FA
:100FC000EC09881F8827881F898B2224239429E213
:100FD0003CE54BE351E4C701B6010E94D20A181662
:100FE0000CF0212C20E030E040E05FE3C701B601C7
:100FF0000E94EC09122D87FD11E0311042C1011150
:1010000042C12A89211141C1112309F441C11B8B1D
:1010100061E088E00E945F02632D8AE00E945F0227
:10102000602F8BE00E945F026A898CE00E945F0261
:10103000612F8DE00E945F029B89992309F42BC1E7
:101040000E94E20220912E0130912F014091300147
:1010500050913101621B730B840B950B6C32714004
:101060008105910580F080912D0191E08927809381
:101070002D010E94E20260932E0170932F01809354
:1010800030019093310160912D0189E00E945F024F
:101090002CE733E049E953E060912C01832D0E9455
:1010A00043052BE233E04CE453E060912B01802FA9
:1010B0000E94430528ED32E04BEF52E060912A0197
:1010C0008A890E94430523E732E049E952E06091B2
:1010D000290189890E94430524E032E041E352E07E
:1010E00060912801822D0E94430520E030E040EC11
:1010F00050E4C301B2010E94D20A18165CF411E058
:1011000020E030E040EC50E4C501B4010E94D20A76
:1011100018160CF010E02AE939E949E95EE3C30149
:10112000B2010E94EC09181664F021E02B8B20E03C
:1011300030E040EC50E4C501B4010E94EC091816FF
:101140000CF41B8A28E931E042EC51E06091270160
:10115000812F0E9443052FE131E04AE451E0609184
:1011600026018B890E944305109327018B89809368
:10117000260130922C0100932B019A8990932A0129
:10118000298920932901209228010E94E2020091DE
:101190002201109123012091240130912501601B2F
:1011A000710B820B930B603177428105910508F436
:1011B0005BC00E94E202609322017093230180933E
:1011C0002401909325018DE191E00E94DB030E94B0
:1011D000E2024AE00E9423048BE091E00E94DB03DC
:1011E00083E091E00E94DB0369817A818B819C819D
:1011F0000E94750488EF90E00E94DB03C301B201F6
:101200000E9475048BEE90E00E94DB036D817E816D
:101210008F8198850E94750482EE90E00E94DB0326
:101220006D857E858F8598890E94750485ED90E097
:101230000E94DB0369857A858B859C850E947504F5
:101240008CEC90E00E94DB03C501B4010E947504A0
:1012500081EC90E00E94DB03C701B6010E94750497
:101260008FEB90E00E94670480E090E0892B09F406
:10127000BDCD0E945803882309F4B8CD0E94000018
:10128000B5CD3B8AC5CE0B8BC3CE8A898B8BC0CEA6
:101290001B8A60E0BECE60E089E00E945F0210928F
:1012A0002D01F6CEEBE3F1E01382128288EE93E09B
:1012B000A0E0B0E084839583A683B78384E091E0C7
:1012C0009183808385EC90E09587848784EC90E01F
:1012D0009787868780EC90E0918B808B81EC90E003
:1012E000938B828B82EC90E0958B848B86EC90E0E4
:1012F000978B868B118E128E138E148E08955058F4
:10130000BB27AA270E9497090C94980A0E948A0A70
:1013100038F00E94910A20F039F49F3F19F426F426
:101320000C94870A0EF4E095E7FB0C94810AE92FF0
:101330000E94A90A58F3BA17620773078407950732
:1013400020F079F4A6F50C94CB0A0EF4E0950B2E60
:10135000BA2FA02D0B01B90190010C01CA01A00107
:101360001124FF27591B99F0593F50F4503E68F162
:101370001A16F040A22F232F342F4427585FF3CFA3
:10138000469537952795A795F0405395C9F77EF474
:101390001F16BA0B620B730B840BBAF09150A1F0BD
:1013A000FF0FBB1F661F771F881FC2F70EC0BA0F43
:1013B000621F731F841F48F4879577956795B795CB
:1013C000F7959E3F08F0B0CF9395880F08F09927C6
:1013D000EE0F9795879508950E945D0A08F481E0C5
:1013E00008950E94B10A88F09F5798F0B92F992765
:1013F000B751B0F0E1F0660F771F881F991F1AF000
:10140000BA95C9F714C0B13091F00E94CB0AB1E08F
:1014100008950C94CB0A672F782F8827B85F39F08E
:10142000B93FCCF3869577956795B395D9F73EF498
:1014300090958095709561957F4F8F4F9F4F089540
:10144000E89409C097FB3EF490958095709561955E
:101450007F4F8F4F9F4F9923A9F0F92F96E9BB2714
:101460009395F695879577956795B795F111F8CF90
:10147000FAF4BB0F11F460FF1BC06F5F7F4F8F4FFB
:101480009F4F16C0882311F096E911C0772321F0F1
:101490009EE8872F762F05C0662371F096E8862F89
:1014A00070E060E02AF09A95660F771F881FDAF7E0
:1014B000880F9695879597F90895990F0008550F0D
:1014C000AA0BE0E8FEEF16161706E807F907C0F0CA
:1014D00012161306E407F50798F0621B730B840BD2
:1014E000950B39F40A2661F0232B242B252B21F4AC
:1014F00008950A2609F4A140A6958FEF811D811D4C
:10150000089597F99F6780E870E060E008959FEF85
:1015100080EC089500240A9416161706180609068A
:10152000089500240A941216130614060506089559
:10153000092E0394000C11F4882352F0BB0F40F4E1
:10154000BF2B11F460FF04C06F5F7F4F8F4F9F4F21
:10155000089557FD9058440F551F59F05F3F71F0A3
:101560004795880F97FB991F61F09F3F79F087950A
:101570000895121613061406551FF2CF4695F1DF93
:1015800008C0161617061806991FF1CF8695710523
:10159000610508940895E894BB2766277727CB0157
:1015A00097F908950E945D0A08F48FEF08950E944C
:1015B000EA0A0C94980A0E948A0A38F00E94910A5A
:1015C00020F0952311F00C94810A0C94870A1124C1
:1015D0000C94CC0A0E94A90A70F3959FC1F3950F51
:1015E00050E0551F629FF001729FBB27F00DB11DA7
:1015F000639FAA27F00DB11DAA1F649F6627B00D37
:10160000A11D661F829F2227B00DA11D621F739F1F
:10161000B00DA11D621F839FA00D611D221F749F2D
:101620003327A00D611D231F849F600D211D822F74
:10163000762F6A2F11249F5750409AF0F1F088239B
:101640004AF0EE0FFF1FBB1F661F771F881F9150C8
:101650005040A9F79E3F510580F00C94810A0C94EC
:10166000CC0A5F3FE4F3983ED4F38695779567956F
:10167000B795F795E7959F5FC1F7FE2B880F911DF2
:101680009695879597F908950E945D0A880B990BA6
:101690000895A1E21A2EAA1BBB1BFD010DC0AA1FB3
:1016A000BB1FEE1FFF1FA217B307E407F50720F0CB
:1016B000A21BB30BE40BF50B661F771F881F991F46
:1016C0001A9469F760957095809590959B01AC018F
:1016D000BD01CF010895EE0FFF1F0590F491E02D9D
:0616E0000994F894FFCF0D
:1016E600000000008E03EE021B03F6034C032A03E0
:1016F6003E030D0A006E616E00696E66006F7666C7
:021706000000E1
:00000001FF
